{
  "_format": "hh-sol-artifact-1",
  "contractName": "HabitStaking",
  "sourceName": "contracts/Habit.sol",
  "abi": [
    {
      "inputs": [],
      "stateMutability": "nonpayable",
      "type": "constructor"
    },
    {
      "anonymous": false,
      "inputs": [
        {
          "indexed": false,
          "internalType": "address",
          "name": "therapist",
          "type": "address"
        },
        {
          "indexed": false,
          "internalType": "address",
          "name": "user",
          "type": "address"
        },
        {
          "indexed": false,
          "internalType": "string",
          "name": "ipfsCID",
          "type": "string"
        }
      ],
      "name": "ReportUploaded",
      "type": "event"
    },
    {
      "anonymous": false,
      "inputs": [
        {
          "indexed": false,
          "internalType": "address",
          "name": "user",
          "type": "address"
        },
        {
          "indexed": false,
          "internalType": "address",
          "name": "therapist",
          "type": "address"
        },
        {
          "indexed": false,
          "internalType": "uint256",
          "name": "sessionFee",
          "type": "uint256"
        }
      ],
      "name": "SessionBooked",
      "type": "event"
    },
    {
      "anonymous": false,
      "inputs": [
        {
          "indexed": true,
          "internalType": "address",
          "name": "user",
          "type": "address"
        },
        {
          "indexed": false,
          "internalType": "uint256",
          "name": "reward",
          "type": "uint256"
        }
      ],
      "name": "TaskCompleted",
      "type": "event"
    },
    {
      "anonymous": false,
      "inputs": [
        {
          "indexed": false,
          "internalType": "address",
          "name": "therapist",
          "type": "address"
        },
        {
          "indexed": false,
          "internalType": "string",
          "name": "name",
          "type": "string"
        }
      ],
      "name": "TherapistRegistered",
      "type": "event"
    },
    {
      "anonymous": false,
      "inputs": [
        {
          "indexed": true,
          "internalType": "address",
          "name": "user",
          "type": "address"
        },
        {
          "indexed": false,
          "internalType": "uint256",
          "name": "amount",
          "type": "uint256"
        }
      ],
      "name": "TokensRedeemed",
      "type": "event"
    },
    {
      "anonymous": false,
      "inputs": [
        {
          "indexed": true,
          "internalType": "address",
          "name": "user",
          "type": "address"
        },
        {
          "indexed": false,
          "internalType": "uint256",
          "name": "amount",
          "type": "uint256"
        }
      ],
      "name": "TokensStaked",
      "type": "event"
    },
    {
      "inputs": [
        {
          "internalType": "address",
          "name": "therapistAddr",
          "type": "address"
        },
        {
          "internalType": "uint256",
          "name": "sessionFee",
          "type": "uint256"
        }
      ],
      "name": "bookTherapist",
      "outputs": [],
      "stateMutability": "nonpayable",
      "type": "function"
    },
    {
      "inputs": [
        {
          "internalType": "uint256",
          "name": "reward",
          "type": "uint256"
        }
      ],
      "name": "completeTask",
      "outputs": [],
      "stateMutability": "nonpayable",
      "type": "function"
    },
    {
      "inputs": [],
      "name": "getMyBookings",
      "outputs": [
        {
          "components": [
            {
              "internalType": "address",
              "name": "user",
              "type": "address"
            },
            {
              "internalType": "uint256",
              "name": "timestamp",
              "type": "uint256"
            },
            {
              "internalType": "uint256",
              "name": "sessionFee",
              "type": "uint256"
            },
            {
              "internalType": "string",
              "name": "encryptedReportCID",
              "type": "string"
            }
          ],
          "internalType": "struct HabitStaking.Booking[]",
          "name": "",
          "type": "tuple[]"
        }
      ],
      "stateMutability": "view",
      "type": "function"
    },
    {
      "inputs": [
        {
          "internalType": "address",
          "name": "user",
          "type": "address"
        }
      ],
      "name": "getUserTokens",
      "outputs": [
        {
          "internalType": "uint256",
          "name": "",
          "type": "uint256"
        }
      ],
      "stateMutability": "view",
      "type": "function"
    },
    {
      "inputs": [],
      "name": "owner",
      "outputs": [
        {
          "internalType": "address",
          "name": "",
          "type": "address"
        }
      ],
      "stateMutability": "view",
      "type": "function"
    },
    {
      "inputs": [
        {
          "internalType": "uint256",
          "name": "amount",
          "type": "uint256"
        }
      ],
      "name": "redeemTokens",
      "outputs": [],
      "stateMutability": "nonpayable",
      "type": "function"
    },
    {
      "inputs": [
        {
          "internalType": "string",
          "name": "name",
          "type": "string"
        }
      ],
      "name": "registerTherapist",
      "outputs": [],
      "stateMutability": "nonpayable",
      "type": "function"
    },
    {
      "inputs": [
        {
          "internalType": "uint256",
          "name": "amount",
          "type": "uint256"
        }
      ],
      "name": "stakeTokens",
      "outputs": [],
      "stateMutability": "nonpayable",
      "type": "function"
    },
    {
      "inputs": [
        {
          "internalType": "address",
          "name": "",
          "type": "address"
        },
        {
          "internalType": "uint256",
          "name": "",
          "type": "uint256"
        }
      ],
      "name": "therapistBookings",
      "outputs": [
        {
          "internalType": "address",
          "name": "user",
          "type": "address"
        },
        {
          "internalType": "uint256",
          "name": "timestamp",
          "type": "uint256"
        },
        {
          "internalType": "uint256",
          "name": "sessionFee",
          "type": "uint256"
        },
        {
          "internalType": "string",
          "name": "encryptedReportCID",
          "type": "string"
        }
      ],
      "stateMutability": "view",
      "type": "function"
    },
    {
      "inputs": [
        {
          "internalType": "address",
          "name": "",
          "type": "address"
        }
      ],
      "name": "therapists",
      "outputs": [
        {
          "internalType": "address",
          "name": "therapistAddress",
          "type": "address"
        },
        {
          "internalType": "string",
          "name": "name",
          "type": "string"
        },
        {
          "internalType": "bool",
          "name": "verified",
          "type": "bool"
        }
      ],
      "stateMutability": "view",
      "type": "function"
    },
    {
      "inputs": [
        {
          "internalType": "address",
          "name": "user",
          "type": "address"
        },
        {
          "internalType": "string",
          "name": "ipfsCID",
          "type": "string"
        }
      ],
      "name": "uploadEncryptedReport",
      "outputs": [],
      "stateMutability": "nonpayable",
      "type": "function"
    },
    {
      "inputs": [
        {
          "internalType": "address",
          "name": "",
          "type": "address"
        }
      ],
      "name": "users",
      "outputs": [
        {
          "internalType": "uint256",
          "name": "stakedTokens",
          "type": "uint256"
        },
        {
          "internalType": "uint256",
          "name": "habitStreak",
          "type": "uint256"
        },
        {
          "internalType": "uint256",
          "name": "earnedTokens",
          "type": "uint256"
        }
      ],
      "stateMutability": "view",
      "type": "function"
    }
  ],
  "bytecode": "0x6080604052348015600f57600080fd5b50336000806101000a81548173ffffffffffffffffffffffffffffffffffffffff021916908373ffffffffffffffffffffffffffffffffffffffff160217905550611d8f8061005f6000396000f3fe608060405234801561001057600080fd5b50600436106100b45760003560e01c80638da5cb5b116100715780638da5cb5b1461018d578063a6e158f8146101ab578063a87430ba146101c7578063decb77b9146101f9578063e1e295581461022c578063ea088db214610248576100b4565b8063180d7ef9146100b9578063519dc8d2146100d75780637547c7a31461010757806380288b5514610123578063824313e51461013f578063877c66c014610171575b600080fd5b6100c1610264565b6040516100ce9190611278565b60405180910390f35b6100f160048036038101906100ec91906112da565b6103fc565b6040516100fe9190611316565b60405180910390f35b610121600480360381019061011c919061135d565b610448565b005b61013d600480360381019061013891906114bf565b6104f2565b005b610159600480360381019061015491906112da565b6106f2565b6040516101689392919061157c565b60405180910390f35b61018b600480360381019061018691906115ba565b6107d1565b005b610195610a9e565b6040516101a291906115fa565b60405180910390f35b6101c560048036038101906101c0919061135d565b610ac2565b005b6101e160048036038101906101dc91906112da565b610bf1565b6040516101f093929190611615565b60405180910390f35b610213600480360381019061020e91906115ba565b610c1b565b604051610223949392919061164c565b60405180910390f35b6102466004803603810190610241919061135d565b610d10565b005b610262600480360381019061025d9190611698565b610e13565b005b6060600360003373ffffffffffffffffffffffffffffffffffffffff1673ffffffffffffffffffffffffffffffffffffffff168152602001908152602001600020805480602002602001604051908101604052809291908181526020016000905b828210156103f357838290600052602060002090600402016040518060800160405290816000820160009054906101000a900473ffffffffffffffffffffffffffffffffffffffff1673ffffffffffffffffffffffffffffffffffffffff1673ffffffffffffffffffffffffffffffffffffffff168152602001600182015481526020016002820154815260200160038201805461036290611723565b80601f016020809104026020016040519081016040528092919081815260200182805461038e90611723565b80156103db5780601f106103b0576101008083540402835291602001916103db565b820191906000526020600020905b8154815290600101906020018083116103be57829003601f168201915b505050505081525050815260200190600101906102c5565b50505050905090565b6000600160008373ffffffffffffffffffffffffffffffffffffffff1673ffffffffffffffffffffffffffffffffffffffff168152602001908152602001600020600201549050919050565b80600160003373ffffffffffffffffffffffffffffffffffffffff1673ffffffffffffffffffffffffffffffffffffffff168152602001908152602001600020600001600082825461049a9190611783565b925050819055503373ffffffffffffffffffffffffffffffffffffffff167fb539ca1e5c8d398ddf1c41c30166f33404941683be4683319b57669a93dad4ef826040516104e79190611316565b60405180910390a250565b600073ffffffffffffffffffffffffffffffffffffffff16600260003373ffffffffffffffffffffffffffffffffffffffff1673ffffffffffffffffffffffffffffffffffffffff16815260200190815260200160002060000160009054906101000a900473ffffffffffffffffffffffffffffffffffffffff1673ffffffffffffffffffffffffffffffffffffffff16146105c3576040517f08c379a00000000000000000000000000000000000000000000000000000000081526004016105ba90611803565b60405180910390fd5b60405180606001604052803373ffffffffffffffffffffffffffffffffffffffff16815260200182815260200160011515815250600260003373ffffffffffffffffffffffffffffffffffffffff1673ffffffffffffffffffffffffffffffffffffffff16815260200190815260200160002060008201518160000160006101000a81548173ffffffffffffffffffffffffffffffffffffffff021916908373ffffffffffffffffffffffffffffffffffffffff160217905550602082015181600101908161069291906119cf565b5060408201518160020160006101000a81548160ff0219169083151502179055509050507f951541f36062ba13dd22808af67f769bf6942ab3df1c89bb4b9625c9a3192c8d33826040516106e7929190611aa1565b60405180910390a150565b60026020528060005260406000206000915090508060000160009054906101000a900473ffffffffffffffffffffffffffffffffffffffff169080600101805461073b90611723565b80601f016020809104026020016040519081016040528092919081815260200182805461076790611723565b80156107b45780601f10610789576101008083540402835291602001916107b4565b820191906000526020600020905b81548152906001019060200180831161079757829003601f168201915b5050505050908060020160009054906101000a900460ff16905083565b600260008373ffffffffffffffffffffffffffffffffffffffff1673ffffffffffffffffffffffffffffffffffffffff16815260200190815260200160002060020160009054906101000a900460ff16610860576040517f08c379a000000000000000000000000000000000000000000000000000000000815260040161085790611b1d565b60405180910390fd5b80600160003373ffffffffffffffffffffffffffffffffffffffff1673ffffffffffffffffffffffffffffffffffffffff1681526020019081526020016000206002015410156108e5576040517f08c379a00000000000000000000000000000000000000000000000000000000081526004016108dc90611b89565b60405180910390fd5b80600160003373ffffffffffffffffffffffffffffffffffffffff1673ffffffffffffffffffffffffffffffffffffffff16815260200190815260200160002060020160008282546109379190611ba9565b92505081905550600360008373ffffffffffffffffffffffffffffffffffffffff1673ffffffffffffffffffffffffffffffffffffffff16815260200190815260200160002060405180608001604052803373ffffffffffffffffffffffffffffffffffffffff16815260200142815260200183815260200160405180602001604052806000815250815250908060018154018082558091505060019003906000526020600020906004020160009091909190915060008201518160000160006101000a81548173ffffffffffffffffffffffffffffffffffffffff021916908373ffffffffffffffffffffffffffffffffffffffff16021790555060208201518160010155604082015181600201556060820151816003019081610a5c91906119cf565b5050507f33ddeb841fa5435a07e966f79583e89649545faa69ca8b27818032f87a2d0f15338383604051610a9293929190611bdd565b60405180910390a15050565b60008054906101000a900473ffffffffffffffffffffffffffffffffffffffff1681565b80600160003373ffffffffffffffffffffffffffffffffffffffff1673ffffffffffffffffffffffffffffffffffffffff168152602001908152602001600020600201541015610b47576040517f08c379a0000000000000000000000000000000000000000000000000000000008152600401610b3e90611b89565b60405180910390fd5b80600160003373ffffffffffffffffffffffffffffffffffffffff1673ffffffffffffffffffffffffffffffffffffffff1681526020019081526020016000206002016000828254610b999190611ba9565b925050819055503373ffffffffffffffffffffffffffffffffffffffff167fcdd4c59de26b3f8623e6012ab9bc32a995eda3452d89c941fc8af6b74276ad3882604051610be69190611316565b60405180910390a250565b60016020528060005260406000206000915090508060000154908060010154908060020154905083565b60036020528160005260406000208181548110610c3757600080fd5b9060005260206000209060040201600091509150508060000160009054906101000a900473ffffffffffffffffffffffffffffffffffffffff1690806001015490806002015490806003018054610c8d90611723565b80601f0160208091040260200160405190810160405280929190818152602001828054610cb990611723565b8015610d065780601f10610cdb57610100808354040283529160200191610d06565b820191906000526020600020905b815481529060010190602001808311610ce957829003601f168201915b5050505050905084565b80600160003373ffffffffffffffffffffffffffffffffffffffff1673ffffffffffffffffffffffffffffffffffffffff1681526020019081526020016000206002016000828254610d629190611783565b9250508190555060018060003373ffffffffffffffffffffffffffffffffffffffff1673ffffffffffffffffffffffffffffffffffffffff1681526020019081526020016000206001016000828254610dbb9190611783565b925050819055503373ffffffffffffffffffffffffffffffffffffffff167ff684d89bb0f42287bf32838774e4b7f8a60c11804b3c6d1791fa55f30679264382604051610e089190611316565b60405180910390a250565b600260003373ffffffffffffffffffffffffffffffffffffffff1673ffffffffffffffffffffffffffffffffffffffff16815260200190815260200160002060020160009054906101000a900460ff16610ea2576040517f08c379a0000000000000000000000000000000000000000000000000000000008152600401610e9990611c60565b60405180910390fd5b6000600360003373ffffffffffffffffffffffffffffffffffffffff1673ffffffffffffffffffffffffffffffffffffffff168152602001908152602001600020905060005b8180549050811015611029578373ffffffffffffffffffffffffffffffffffffffff16828281548110610f1e57610f1d611c80565b5b906000526020600020906004020160000160009054906101000a900473ffffffffffffffffffffffffffffffffffffffff1673ffffffffffffffffffffffffffffffffffffffff16148015610fa357506000828281548110610f8357610f82611c80565b5b90600052602060002090600402016003018054610f9f90611723565b9050145b1561101c5782828281548110610fbc57610fbb611c80565b5b90600052602060002090600402016003019081610fd991906119cf565b507fe067c16c60f1162cfa58ba71c42f51e98516ba275251b34cf2c209584f54a45d33858560405161100d93929190611caf565b60405180910390a15050611065565b8080600101915050610ee8565b506040517f08c379a000000000000000000000000000000000000000000000000000000000815260040161105c90611d39565b60405180910390fd5b5050565b600081519050919050565b600082825260208201905092915050565b6000819050602082019050919050565b600073ffffffffffffffffffffffffffffffffffffffff82169050919050565b60006110c082611095565b9050919050565b6110d0816110b5565b82525050565b6000819050919050565b6110e9816110d6565b82525050565b600081519050919050565b600082825260208201905092915050565b60005b8381101561112957808201518184015260208101905061110e565b60008484015250505050565b6000601f19601f8301169050919050565b6000611151826110ef565b61115b81856110fa565b935061116b81856020860161110b565b61117481611135565b840191505092915050565b600060808301600083015161119760008601826110c7565b5060208301516111aa60208601826110e0565b5060408301516111bd60408601826110e0565b50606083015184820360608601526111d58282611146565b9150508091505092915050565b60006111ee838361117f565b905092915050565b6000602082019050919050565b600061120e82611069565b6112188185611074565b93508360208202850161122a85611085565b8060005b85811015611266578484038952815161124785826111e2565b9450611252836111f6565b925060208a0199505060018101905061122e565b50829750879550505050505092915050565b600060208201905081810360008301526112928184611203565b905092915050565b6000604051905090565b600080fd5b600080fd5b6112b7816110b5565b81146112c257600080fd5b50565b6000813590506112d4816112ae565b92915050565b6000602082840312156112f0576112ef6112a4565b5b60006112fe848285016112c5565b91505092915050565b611310816110d6565b82525050565b600060208201905061132b6000830184611307565b92915050565b61133a816110d6565b811461134557600080fd5b50565b60008135905061135781611331565b92915050565b600060208284031215611373576113726112a4565b5b600061138184828501611348565b91505092915050565b600080fd5b600080fd5b7f4e487b7100000000000000000000000000000000000000000000000000000000600052604160045260246000fd5b6113cc82611135565b810181811067ffffffffffffffff821117156113eb576113ea611394565b5b80604052505050565b60006113fe61129a565b905061140a82826113c3565b919050565b600067ffffffffffffffff82111561142a57611429611394565b5b61143382611135565b9050602081019050919050565b82818337600083830152505050565b600061146261145d8461140f565b6113f4565b90508281526020810184848401111561147e5761147d61138f565b5b611489848285611440565b509392505050565b600082601f8301126114a6576114a561138a565b5b81356114b684826020860161144f565b91505092915050565b6000602082840312156114d5576114d46112a4565b5b600082013567ffffffffffffffff8111156114f3576114f26112a9565b5b6114ff84828501611491565b91505092915050565b611511816110b5565b82525050565b600082825260208201905092915050565b6000611533826110ef565b61153d8185611517565b935061154d81856020860161110b565b61155681611135565b840191505092915050565b60008115159050919050565b61157681611561565b82525050565b60006060820190506115916000830186611508565b81810360208301526115a38185611528565b90506115b2604083018461156d565b949350505050565b600080604083850312156115d1576115d06112a4565b5b60006115df858286016112c5565b92505060206115f085828601611348565b9150509250929050565b600060208201905061160f6000830184611508565b92915050565b600060608201905061162a6000830186611307565b6116376020830185611307565b6116446040830184611307565b949350505050565b60006080820190506116616000830187611508565b61166e6020830186611307565b61167b6040830185611307565b818103606083015261168d8184611528565b905095945050505050565b600080604083850312156116af576116ae6112a4565b5b60006116bd858286016112c5565b925050602083013567ffffffffffffffff8111156116de576116dd6112a9565b5b6116ea85828601611491565b9150509250929050565b7f4e487b7100000000000000000000000000000000000000000000000000000000600052602260045260246000fd5b6000600282049050600182168061173b57607f821691505b60208210810361174e5761174d6116f4565b5b50919050565b7f4e487b7100000000000000000000000000000000000000000000000000000000600052601160045260246000fd5b600061178e826110d6565b9150611799836110d6565b92508282019050808211156117b1576117b0611754565b5b92915050565b7f416c726561647920726567697374657265640000000000000000000000000000600082015250565b60006117ed601283611517565b91506117f8826117b7565b602082019050919050565b6000602082019050818103600083015261181c816117e0565b9050919050565b60008190508160005260206000209050919050565b60006020601f8301049050919050565b600082821b905092915050565b6000600883026118857fffffffffffffffffffffffffffffffffffffffffffffffffffffffffffffffff82611848565b61188f8683611848565b95508019841693508086168417925050509392505050565b6000819050919050565b60006118cc6118c76118c2846110d6565b6118a7565b6110d6565b9050919050565b6000819050919050565b6118e6836118b1565b6118fa6118f2826118d3565b848454611855565b825550505050565b600090565b61190f611902565b61191a8184846118dd565b505050565b5b8181101561193e57611933600082611907565b600181019050611920565b5050565b601f8211156119835761195481611823565b61195d84611838565b8101602085101561196c578190505b61198061197885611838565b83018261191f565b50505b505050565b600082821c905092915050565b60006119a660001984600802611988565b1980831691505092915050565b60006119bf8383611995565b9150826002028217905092915050565b6119d8826110ef565b67ffffffffffffffff8111156119f1576119f0611394565b5b6119fb8254611723565b611a06828285611942565b600060209050601f831160018114611a395760008415611a27578287015190505b611a3185826119b3565b865550611a99565b601f198416611a4786611823565b60005b82811015611a6f57848901518255600182019150602085019450602081019050611a4a565b86831015611a8c5784890151611a88601f891682611995565b8355505b6001600288020188555050505b505050505050565b6000604082019050611ab66000830185611508565b8181036020830152611ac88184611528565b90509392505050565b7f546865726170697374206e6f7420766572696669656400000000000000000000600082015250565b6000611b07601683611517565b9150611b1282611ad1565b602082019050919050565b60006020820190508181036000830152611b3681611afa565b9050919050565b7f4e6f7420656e6f75676820746f6b656e73000000000000000000000000000000600082015250565b6000611b73601183611517565b9150611b7e82611b3d565b602082019050919050565b60006020820190508181036000830152611ba281611b66565b9050919050565b6000611bb4826110d6565b9150611bbf836110d6565b9250828203905081811115611bd757611bd6611754565b5b92915050565b6000606082019050611bf26000830186611508565b611bff6020830185611508565b611c0c6040830184611307565b949350505050565b7f4e6f742061207665726966696564207468657261706973740000000000000000600082015250565b6000611c4a601883611517565b9150611c5582611c14565b602082019050919050565b60006020820190508181036000830152611c7981611c3d565b9050919050565b7f4e487b7100000000000000000000000000000000000000000000000000000000600052603260045260246000fd5b6000606082019050611cc46000830186611508565b611cd16020830185611508565b8181036040830152611ce38184611528565b9050949350505050565b7f4e6f206d61746368696e6720626f6f6b696e6720666f756e6400000000000000600082015250565b6000611d23601983611517565b9150611d2e82611ced565b602082019050919050565b60006020820190508181036000830152611d5281611d16565b905091905056fea2646970667358221220676464f5e2f88dd9a9b16c649cfd466f82f38ef4c635022ff75c3d429fdc5c5464736f6c634300081c0033",
  "linkReferences": {},
  "deployedLinkReferences": {}
}